{
  "_format": "hh-sol-artifact-1",
  "contractName": "Web3Mint",
  "sourceName": "contracts/Web3Mint.sol",
  "abi": [
    {
      "inputs": [],
      "stateMutability": "nonpayable",
      "type": "constructor"
    },
    {
      "anonymous": false,
      "inputs": [
        {
          "indexed": true,
          "internalType": "address",
          "name": "owner",
          "type": "address"
        },
        {
          "indexed": true,
          "internalType": "address",
          "name": "approved",
          "type": "address"
        },
        {
          "indexed": true,
          "internalType": "uint256",
          "name": "tokenId",
          "type": "uint256"
        }
      ],
      "name": "Approval",
      "type": "event"
    },
    {
      "anonymous": false,
      "inputs": [
        {
          "indexed": true,
          "internalType": "address",
          "name": "owner",
          "type": "address"
        },
        {
          "indexed": true,
          "internalType": "address",
          "name": "operator",
          "type": "address"
        },
        {
          "indexed": false,
          "internalType": "bool",
          "name": "approved",
          "type": "bool"
        }
      ],
      "name": "ApprovalForAll",
      "type": "event"
    },
    {
      "anonymous": false,
      "inputs": [
        {
          "indexed": true,
          "internalType": "address",
          "name": "from",
          "type": "address"
        },
        {
          "indexed": true,
          "internalType": "address",
          "name": "to",
          "type": "address"
        },
        {
          "indexed": true,
          "internalType": "uint256",
          "name": "tokenId",
          "type": "uint256"
        }
      ],
      "name": "Transfer",
      "type": "event"
    },
    {
      "inputs": [
        {
          "internalType": "address",
          "name": "to",
          "type": "address"
        },
        {
          "internalType": "uint256",
          "name": "tokenId",
          "type": "uint256"
        }
      ],
      "name": "approve",
      "outputs": [],
      "stateMutability": "nonpayable",
      "type": "function"
    },
    {
      "inputs": [
        {
          "internalType": "address",
          "name": "owner",
          "type": "address"
        }
      ],
      "name": "balanceOf",
      "outputs": [
        {
          "internalType": "uint256",
          "name": "",
          "type": "uint256"
        }
      ],
      "stateMutability": "view",
      "type": "function"
    },
    {
      "inputs": [
        {
          "internalType": "uint256",
          "name": "tokenId",
          "type": "uint256"
        }
      ],
      "name": "getApproved",
      "outputs": [
        {
          "internalType": "address",
          "name": "",
          "type": "address"
        }
      ],
      "stateMutability": "view",
      "type": "function"
    },
    {
      "inputs": [],
      "name": "getCurrentTokenId",
      "outputs": [
        {
          "internalType": "uint256",
          "name": "",
          "type": "uint256"
        }
      ],
      "stateMutability": "view",
      "type": "function"
    },
    {
      "inputs": [
        {
          "internalType": "address",
          "name": "owner",
          "type": "address"
        },
        {
          "internalType": "address",
          "name": "operator",
          "type": "address"
        }
      ],
      "name": "isApprovedForAll",
      "outputs": [
        {
          "internalType": "bool",
          "name": "",
          "type": "bool"
        }
      ],
      "stateMutability": "view",
      "type": "function"
    },
    {
      "inputs": [
        {
          "internalType": "string",
          "name": "name",
          "type": "string"
        },
        {
          "internalType": "string",
          "name": "imageURI",
          "type": "string"
        }
      ],
      "name": "mintIpfsNFT",
      "outputs": [],
      "stateMutability": "nonpayable",
      "type": "function"
    },
    {
      "inputs": [],
      "name": "name",
      "outputs": [
        {
          "internalType": "string",
          "name": "",
          "type": "string"
        }
      ],
      "stateMutability": "view",
      "type": "function"
    },
    {
      "inputs": [
        {
          "internalType": "uint256",
          "name": "tokenId",
          "type": "uint256"
        }
      ],
      "name": "ownerOf",
      "outputs": [
        {
          "internalType": "address",
          "name": "",
          "type": "address"
        }
      ],
      "stateMutability": "view",
      "type": "function"
    },
    {
      "inputs": [
        {
          "internalType": "address",
          "name": "from",
          "type": "address"
        },
        {
          "internalType": "address",
          "name": "to",
          "type": "address"
        },
        {
          "internalType": "uint256",
          "name": "tokenId",
          "type": "uint256"
        }
      ],
      "name": "safeTransferFrom",
      "outputs": [],
      "stateMutability": "nonpayable",
      "type": "function"
    },
    {
      "inputs": [
        {
          "internalType": "address",
          "name": "from",
          "type": "address"
        },
        {
          "internalType": "address",
          "name": "to",
          "type": "address"
        },
        {
          "internalType": "uint256",
          "name": "tokenId",
          "type": "uint256"
        },
        {
          "internalType": "bytes",
          "name": "data",
          "type": "bytes"
        }
      ],
      "name": "safeTransferFrom",
      "outputs": [],
      "stateMutability": "nonpayable",
      "type": "function"
    },
    {
      "inputs": [
        {
          "internalType": "address",
          "name": "operator",
          "type": "address"
        },
        {
          "internalType": "bool",
          "name": "approved",
          "type": "bool"
        }
      ],
      "name": "setApprovalForAll",
      "outputs": [],
      "stateMutability": "nonpayable",
      "type": "function"
    },
    {
      "inputs": [
        {
          "internalType": "bytes4",
          "name": "interfaceId",
          "type": "bytes4"
        }
      ],
      "name": "supportsInterface",
      "outputs": [
        {
          "internalType": "bool",
          "name": "",
          "type": "bool"
        }
      ],
      "stateMutability": "view",
      "type": "function"
    },
    {
      "inputs": [],
      "name": "symbol",
      "outputs": [
        {
          "internalType": "string",
          "name": "",
          "type": "string"
        }
      ],
      "stateMutability": "view",
      "type": "function"
    },
    {
      "inputs": [
        {
          "internalType": "uint256",
          "name": "_tokenId",
          "type": "uint256"
        }
      ],
      "name": "tokenURI",
      "outputs": [
        {
          "internalType": "string",
          "name": "",
          "type": "string"
        }
      ],
      "stateMutability": "view",
      "type": "function"
    },
    {
      "inputs": [
        {
          "internalType": "address",
          "name": "from",
          "type": "address"
        },
        {
          "internalType": "address",
          "name": "to",
          "type": "address"
        },
        {
          "internalType": "uint256",
          "name": "tokenId",
          "type": "uint256"
        }
      ],
      "name": "transferFrom",
      "outputs": [],
      "stateMutability": "nonpayable",
      "type": "function"
    }
  ],
  "bytecode": "0x60806040523480156200001157600080fd5b506040518060400160405280600381526020017f4e465400000000000000000000000000000000000000000000000000000000008152506040518060400160405280600381526020017f6e6674000000000000000000000000000000000000000000000000000000000081525081600090816200008f91906200043b565b508060019081620000a191906200043b565b505050620000ef6040518060400160405280601881526020017f54686973206973206d79204e465420636f6e74726163742e0000000000000000815250620000f560201b62000aec1760201c565b620005d5565b62000195816040516024016200010c9190620005b1565b6040516020818303038152906040527f41304fac000000000000000000000000000000000000000000000000000000007bffffffffffffffffffffffffffffffffffffffffffffffffffffffff19166020820180517bffffffffffffffffffffffffffffffffffffffffffffffffffffffff83818316178352505050506200019860201b60201c565b50565b60008151905060006a636f6e736f6c652e6c6f679050602083016000808483855afa5050505050565b600081519050919050565b7f4e487b7100000000000000000000000000000000000000000000000000000000600052604160045260246000fd5b7f4e487b7100000000000000000000000000000000000000000000000000000000600052602260045260246000fd5b600060028204905060018216806200024357607f821691505b602082108103620002595762000258620001fb565b5b50919050565b60008190508160005260206000209050919050565b60006020601f8301049050919050565b600082821b905092915050565b600060088302620002c37fffffffffffffffffffffffffffffffffffffffffffffffffffffffffffffffff8262000284565b620002cf868362000284565b95508019841693508086168417925050509392505050565b6000819050919050565b6000819050919050565b60006200031c620003166200031084620002e7565b620002f1565b620002e7565b9050919050565b6000819050919050565b6200033883620002fb565b62000350620003478262000323565b84845462000291565b825550505050565b600090565b6200036762000358565b620003748184846200032d565b505050565b5b818110156200039c57620003906000826200035d565b6001810190506200037a565b5050565b601f821115620003eb57620003b5816200025f565b620003c08462000274565b81016020851015620003d0578190505b620003e8620003df8562000274565b83018262000379565b50505b505050565b600082821c905092915050565b60006200041060001984600802620003f0565b1980831691505092915050565b60006200042b8383620003fd565b9150826002028217905092915050565b6200044682620001c1565b67ffffffffffffffff811115620004625762000461620001cc565b5b6200046e82546200022a565b6200047b828285620003a0565b600060209050601f831160018114620004b357600084156200049e578287015190505b620004aa85826200041d565b8655506200051a565b601f198416620004c3866200025f565b60005b82811015620004ed57848901518255600182019150602085019450602081019050620004c6565b868310156200050d578489015162000509601f891682620003fd565b8355505b6001600288020188555050505b505050505050565b600082825260208201905092915050565b60005b838110156200055357808201518184015260208101905062000536565b60008484015250505050565b6000601f19601f8301169050919050565b60006200057d82620001c1565b62000589818562000522565b93506200059b81856020860162000533565b620005a6816200055f565b840191505092915050565b60006020820190508181036000830152620005cd818462000570565b905092915050565b612fef80620005e56000396000f3fe608060405234801561001057600080fd5b50600436106100f55760003560e01c80636352211e11610097578063b88d4fde11610066578063b88d4fde14610284578063c87b56dd146102a0578063e985e9c5146102d0578063eb00195d14610300576100f5565b80636352211e146101ea57806370a082311461021a57806395d89b411461024a578063a22cb46514610268576100f5565b8063095ea7b3116100d3578063095ea7b31461017857806323b872dd1461019457806342842e0e146101b057806356189236146101cc576100f5565b806301ffc9a7146100fa57806306fdde031461012a578063081812fc14610148575b600080fd5b610114600480360381019061010f9190611a7f565b61031c565b6040516101219190611ac7565b60405180910390f35b6101326103fe565b60405161013f9190611b72565b60405180910390f35b610162600480360381019061015d9190611bca565b610490565b60405161016f9190611c38565b60405180910390f35b610192600480360381019061018d9190611c7f565b6104d6565b005b6101ae60048036038101906101a99190611cbf565b6105ed565b005b6101ca60048036038101906101c59190611cbf565b61064d565b005b6101d461066d565b6040516101e19190611d21565b60405180910390f35b61020460048036038101906101ff9190611bca565b61067e565b6040516102119190611c38565b60405180910390f35b610234600480360381019061022f9190611d3c565b61072f565b6040516102419190611d21565b60405180910390f35b6102526107e6565b60405161025f9190611b72565b60405180910390f35b610282600480360381019061027d9190611d95565b610878565b005b61029e60048036038101906102999190611f0a565b61088e565b005b6102ba60048036038101906102b59190611bca565b6108f0565b6040516102c79190611b72565b60405180910390f35b6102ea60048036038101906102e59190611f8d565b6109a0565b6040516102f79190611ac7565b60405180910390f35b61031a6004803603810190610315919061206e565b610a34565b005b60007f80ac58cd000000000000000000000000000000000000000000000000000000007bffffffffffffffffffffffffffffffffffffffffffffffffffffffff1916827bffffffffffffffffffffffffffffffffffffffffffffffffffffffff191614806103e757507f5b5e139f000000000000000000000000000000000000000000000000000000007bffffffffffffffffffffffffffffffffffffffffffffffffffffffff1916827bffffffffffffffffffffffffffffffffffffffffffffffffffffffff1916145b806103f757506103f682610b85565b5b9050919050565b60606000805461040d90612115565b80601f016020809104026020016040519081016040528092919081815260200182805461043990612115565b80156104865780601f1061045b57610100808354040283529160200191610486565b820191906000526020600020905b81548152906001019060200180831161046957829003601f168201915b5050505050905090565b600061049b82610bef565b6004600083815260200190815260200160002060009054906101000a900473ffffffffffffffffffffffffffffffffffffffff169050919050565b60006104e18261067e565b90508073ffffffffffffffffffffffffffffffffffffffff168373ffffffffffffffffffffffffffffffffffffffff1603610551576040517f08c379a0000000000000000000000000000000000000000000000000000000008152600401610548906121b8565b60405180910390fd5b8073ffffffffffffffffffffffffffffffffffffffff16610570610c3a565b73ffffffffffffffffffffffffffffffffffffffff16148061059f575061059e81610599610c3a565b6109a0565b5b6105de576040517f08c379a00000000000000000000000000000000000000000000000000000000081526004016105d59061224a565b60405180910390fd5b6105e88383610c42565b505050565b6105fe6105f8610c3a565b82610cfb565b61063d576040517f08c379a0000000000000000000000000000000000000000000000000000000008152600401610634906122dc565b60405180910390fd5b610648838383610d90565b505050565b6106688383836040518060200160405280600081525061088e565b505050565b60006106796007610ff6565b905090565b6000806002600084815260200190815260200160002060009054906101000a900473ffffffffffffffffffffffffffffffffffffffff169050600073ffffffffffffffffffffffffffffffffffffffff168173ffffffffffffffffffffffffffffffffffffffff1603610726576040517f08c379a000000000000000000000000000000000000000000000000000000000815260040161071d90612348565b60405180910390fd5b80915050919050565b60008073ffffffffffffffffffffffffffffffffffffffff168273ffffffffffffffffffffffffffffffffffffffff160361079f576040517f08c379a0000000000000000000000000000000000000000000000000000000008152600401610796906123da565b60405180910390fd5b600360008373ffffffffffffffffffffffffffffffffffffffff1673ffffffffffffffffffffffffffffffffffffffff168152602001908152602001600020549050919050565b6060600180546107f590612115565b80601f016020809104026020016040519081016040528092919081815260200182805461082190612115565b801561086e5780601f106108435761010080835404028352916020019161086e565b820191906000526020600020905b81548152906001019060200180831161085157829003601f168201915b5050505050905090565b61088a610883610c3a565b8383611004565b5050565b61089f610899610c3a565b83610cfb565b6108de576040517f08c379a00000000000000000000000000000000000000000000000000000000081526004016108d5906122dc565b60405180910390fd5b6108ea84848484611170565b50505050565b606060006109706006848154811061090b5761090a6123fa565b5b9060005260206000209060020201600001610925856111cc565b60068681548110610939576109386123fa565b5b906000526020600020906002020160010160405160200161095c93929190612653565b60405160208183030381529060405261132c565b905060008160405160200161098591906126fc565b60405160208183030381529060405290508092505050919050565b6000600560008473ffffffffffffffffffffffffffffffffffffffff1673ffffffffffffffffffffffffffffffffffffffff16815260200190815260200160002060008373ffffffffffffffffffffffffffffffffffffffff1673ffffffffffffffffffffffffffffffffffffffff16815260200190815260200160002060009054906101000a900460ff16905092915050565b6000610a406007610ff6565b9050610a4c33826114c3565b600660405180604001604052808581526020018481525090806001815401808255809150506001900390600052602060002090600202016000909190919091506000820151816000019081610aa191906128b5565b506020820151816001019081610ab791906128b5565b505050610add604051806060016040528060258152602001612f556025913982336114e1565b610ae76007611580565b505050565b610b8281604051602401610b009190611b72565b6040516020818303038152906040527f41304fac000000000000000000000000000000000000000000000000000000007bffffffffffffffffffffffffffffffffffffffffffffffffffffffff19166020820180517bffffffffffffffffffffffffffffffffffffffffffffffffffffffff8381831617835250505050611596565b50565b60007f01ffc9a7000000000000000000000000000000000000000000000000000000007bffffffffffffffffffffffffffffffffffffffffffffffffffffffff1916827bffffffffffffffffffffffffffffffffffffffffffffffffffffffff1916149050919050565b610bf8816115bf565b610c37576040517f08c379a0000000000000000000000000000000000000000000000000000000008152600401610c2e90612348565b60405180910390fd5b50565b600033905090565b816004600083815260200190815260200160002060006101000a81548173ffffffffffffffffffffffffffffffffffffffff021916908373ffffffffffffffffffffffffffffffffffffffff160217905550808273ffffffffffffffffffffffffffffffffffffffff16610cb58361067e565b73ffffffffffffffffffffffffffffffffffffffff167f8c5be1e5ebec7d5bd14f71427d1e84f3dd0314c0f7b2291e5b200ac8c7c3b92560405160405180910390a45050565b600080610d078361067e565b90508073ffffffffffffffffffffffffffffffffffffffff168473ffffffffffffffffffffffffffffffffffffffff161480610d495750610d4881856109a0565b5b80610d8757508373ffffffffffffffffffffffffffffffffffffffff16610d6f84610490565b73ffffffffffffffffffffffffffffffffffffffff16145b91505092915050565b8273ffffffffffffffffffffffffffffffffffffffff16610db08261067e565b73ffffffffffffffffffffffffffffffffffffffff1614610e06576040517f08c379a0000000000000000000000000000000000000000000000000000000008152600401610dfd906129f9565b60405180910390fd5b600073ffffffffffffffffffffffffffffffffffffffff168273ffffffffffffffffffffffffffffffffffffffff1603610e75576040517f08c379a0000000000000000000000000000000000000000000000000000000008152600401610e6c90612a8b565b60405180910390fd5b610e8083838361162b565b610e8b600082610c42565b6001600360008573ffffffffffffffffffffffffffffffffffffffff1673ffffffffffffffffffffffffffffffffffffffff1681526020019081526020016000206000828254610edb9190612ada565b925050819055506001600360008473ffffffffffffffffffffffffffffffffffffffff1673ffffffffffffffffffffffffffffffffffffffff1681526020019081526020016000206000828254610f329190612b0e565b92505081905550816002600083815260200190815260200160002060006101000a81548173ffffffffffffffffffffffffffffffffffffffff021916908373ffffffffffffffffffffffffffffffffffffffff160217905550808273ffffffffffffffffffffffffffffffffffffffff168473ffffffffffffffffffffffffffffffffffffffff167fddf252ad1be2c89b69c2b068fc378daa952ba7f163c4a11628f55a4df523b3ef60405160405180910390a4610ff1838383611630565b505050565b600081600001549050919050565b8173ffffffffffffffffffffffffffffffffffffffff168373ffffffffffffffffffffffffffffffffffffffff1603611072576040517f08c379a000000000000000000000000000000000000000000000000000000000815260040161106990612b8e565b60405180910390fd5b80600560008573ffffffffffffffffffffffffffffffffffffffff1673ffffffffffffffffffffffffffffffffffffffff16815260200190815260200160002060008473ffffffffffffffffffffffffffffffffffffffff1673ffffffffffffffffffffffffffffffffffffffff16815260200190815260200160002060006101000a81548160ff0219169083151502179055508173ffffffffffffffffffffffffffffffffffffffff168373ffffffffffffffffffffffffffffffffffffffff167f17307eab39ab6107e8899845ad3d59bd9653f200f220920489ca2b5937696c31836040516111639190611ac7565b60405180910390a3505050565b61117b848484610d90565b61118784848484611635565b6111c6576040517f08c379a00000000000000000000000000000000000000000000000000000000081526004016111bd90612c20565b60405180910390fd5b50505050565b606060008203611213576040518060400160405280600181526020017f30000000000000000000000000000000000000000000000000000000000000008152509050611327565b600082905060005b6000821461124557808061122e90612c40565b915050600a8261123e9190612cb7565b915061121b565b60008167ffffffffffffffff81111561126157611260611ddf565b5b6040519080825280601f01601f1916602001820160405280156112935781602001600182028036833780820191505090505b5090505b60008514611320576001826112ac9190612ada565b9150600a856112bb9190612ce8565b60306112c79190612b0e565b60f81b8183815181106112dd576112dc6123fa565b5b60200101907effffffffffffffffffffffffffffffffffffffffffffffffffffffffffffff1916908160001a905350600a856113199190612cb7565b9450611297565b8093505050505b919050565b60606000825190506000810361135457604051806020016040528060008152509150506114be565b600060036002836113659190612b0e565b61136f9190612cb7565b600461137b9190612d19565b9050600060208261138c9190612b0e565b67ffffffffffffffff8111156113a5576113a4611ddf565b5b6040519080825280601f01601f1916602001820160405280156113d75781602001600182028036833780820191505090505b5090506000604051806060016040528060408152602001612f7a604091399050600181016020830160005b8681101561147b5760038101905062ffffff818a015116603f8160121c168401518060081b905060ff603f83600c1c1686015116810190508060081b905060ff603f8360061c1686015116810190508060081b905060ff603f831686015116810190508060e01b90508084526004840193505050611402565b50600386066001811461149557600281146114a5576114b0565b613d3d60f01b60028303526114b0565b603d60f81b60018303525b508484525050819450505050505b919050565b6114dd8282604051806020016040528060008152506117bc565b5050565b61157b8383836040516024016114f993929190612d5b565b6040516020818303038152906040527f1c7ec448000000000000000000000000000000000000000000000000000000007bffffffffffffffffffffffffffffffffffffffffffffffffffffffff19166020820180517bffffffffffffffffffffffffffffffffffffffffffffffffffffffff8381831617835250505050611596565b505050565b6001816000016000828254019250508190555050565b60008151905060006a636f6e736f6c652e6c6f679050602083016000808483855afa5050505050565b60008073ffffffffffffffffffffffffffffffffffffffff166002600084815260200190815260200160002060009054906101000a900473ffffffffffffffffffffffffffffffffffffffff1673ffffffffffffffffffffffffffffffffffffffff1614159050919050565b505050565b505050565b60006116568473ffffffffffffffffffffffffffffffffffffffff16611817565b156117af578373ffffffffffffffffffffffffffffffffffffffff1663150b7a0261167f610c3a565b8786866040518563ffffffff1660e01b81526004016116a19493929190612dee565b6020604051808303816000875af19250505080156116dd57506040513d601f19601f820116820180604052508101906116da9190612e4f565b60015b61175f573d806000811461170d576040519150601f19603f3d011682016040523d82523d6000602084013e611712565b606091505b506000815103611757576040517f08c379a000000000000000000000000000000000000000000000000000000000815260040161174e90612c20565b60405180910390fd5b805181602001fd5b63150b7a0260e01b7bffffffffffffffffffffffffffffffffffffffffffffffffffffffff1916817bffffffffffffffffffffffffffffffffffffffffffffffffffffffff1916149150506117b4565b600190505b949350505050565b6117c6838361183a565b6117d36000848484611635565b611812576040517f08c379a000000000000000000000000000000000000000000000000000000000815260040161180990612c20565b60405180910390fd5b505050565b6000808273ffffffffffffffffffffffffffffffffffffffff163b119050919050565b600073ffffffffffffffffffffffffffffffffffffffff168273ffffffffffffffffffffffffffffffffffffffff16036118a9576040517f08c379a00000000000000000000000000000000000000000000000000000000081526004016118a090612ec8565b60405180910390fd5b6118b2816115bf565b156118f2576040517f08c379a00000000000000000000000000000000000000000000000000000000081526004016118e990612f34565b60405180910390fd5b6118fe6000838361162b565b6001600360008473ffffffffffffffffffffffffffffffffffffffff1673ffffffffffffffffffffffffffffffffffffffff168152602001908152602001600020600082825461194e9190612b0e565b92505081905550816002600083815260200190815260200160002060006101000a81548173ffffffffffffffffffffffffffffffffffffffff021916908373ffffffffffffffffffffffffffffffffffffffff160217905550808273ffffffffffffffffffffffffffffffffffffffff16600073ffffffffffffffffffffffffffffffffffffffff167fddf252ad1be2c89b69c2b068fc378daa952ba7f163c4a11628f55a4df523b3ef60405160405180910390a4611a0f60008383611630565b5050565b6000604051905090565b600080fd5b600080fd5b60007fffffffff0000000000000000000000000000000000000000000000000000000082169050919050565b611a5c81611a27565b8114611a6757600080fd5b50565b600081359050611a7981611a53565b92915050565b600060208284031215611a9557611a94611a1d565b5b6000611aa384828501611a6a565b91505092915050565b60008115159050919050565b611ac181611aac565b82525050565b6000602082019050611adc6000830184611ab8565b92915050565b600081519050919050565b600082825260208201905092915050565b60005b83811015611b1c578082015181840152602081019050611b01565b60008484015250505050565b6000601f19601f8301169050919050565b6000611b4482611ae2565b611b4e8185611aed565b9350611b5e818560208601611afe565b611b6781611b28565b840191505092915050565b60006020820190508181036000830152611b8c8184611b39565b905092915050565b6000819050919050565b611ba781611b94565b8114611bb257600080fd5b50565b600081359050611bc481611b9e565b92915050565b600060208284031215611be057611bdf611a1d565b5b6000611bee84828501611bb5565b91505092915050565b600073ffffffffffffffffffffffffffffffffffffffff82169050919050565b6000611c2282611bf7565b9050919050565b611c3281611c17565b82525050565b6000602082019050611c4d6000830184611c29565b92915050565b611c5c81611c17565b8114611c6757600080fd5b50565b600081359050611c7981611c53565b92915050565b60008060408385031215611c9657611c95611a1d565b5b6000611ca485828601611c6a565b9250506020611cb585828601611bb5565b9150509250929050565b600080600060608486031215611cd857611cd7611a1d565b5b6000611ce686828701611c6a565b9350506020611cf786828701611c6a565b9250506040611d0886828701611bb5565b9150509250925092565b611d1b81611b94565b82525050565b6000602082019050611d366000830184611d12565b92915050565b600060208284031215611d5257611d51611a1d565b5b6000611d6084828501611c6a565b91505092915050565b611d7281611aac565b8114611d7d57600080fd5b50565b600081359050611d8f81611d69565b92915050565b60008060408385031215611dac57611dab611a1d565b5b6000611dba85828601611c6a565b9250506020611dcb85828601611d80565b9150509250929050565b600080fd5b600080fd5b7f4e487b7100000000000000000000000000000000000000000000000000000000600052604160045260246000fd5b611e1782611b28565b810181811067ffffffffffffffff82111715611e3657611e35611ddf565b5b80604052505050565b6000611e49611a13565b9050611e558282611e0e565b919050565b600067ffffffffffffffff821115611e7557611e74611ddf565b5b611e7e82611b28565b9050602081019050919050565b82818337600083830152505050565b6000611ead611ea884611e5a565b611e3f565b905082815260208101848484011115611ec957611ec8611dda565b5b611ed4848285611e8b565b509392505050565b600082601f830112611ef157611ef0611dd5565b5b8135611f01848260208601611e9a565b91505092915050565b60008060008060808587031215611f2457611f23611a1d565b5b6000611f3287828801611c6a565b9450506020611f4387828801611c6a565b9350506040611f5487828801611bb5565b925050606085013567ffffffffffffffff811115611f7557611f74611a22565b5b611f8187828801611edc565b91505092959194509250565b60008060408385031215611fa457611fa3611a1d565b5b6000611fb285828601611c6a565b9250506020611fc385828601611c6a565b9150509250929050565b600067ffffffffffffffff821115611fe857611fe7611ddf565b5b611ff182611b28565b9050602081019050919050565b600061201161200c84611fcd565b611e3f565b90508281526020810184848401111561202d5761202c611dda565b5b612038848285611e8b565b509392505050565b600082601f83011261205557612054611dd5565b5b8135612065848260208601611ffe565b91505092915050565b6000806040838503121561208557612084611a1d565b5b600083013567ffffffffffffffff8111156120a3576120a2611a22565b5b6120af85828601612040565b925050602083013567ffffffffffffffff8111156120d0576120cf611a22565b5b6120dc85828601612040565b9150509250929050565b7f4e487b7100000000000000000000000000000000000000000000000000000000600052602260045260246000fd5b6000600282049050600182168061212d57607f821691505b6020821081036121405761213f6120e6565b5b50919050565b7f4552433732313a20617070726f76616c20746f2063757272656e74206f776e6560008201527f7200000000000000000000000000000000000000000000000000000000000000602082015250565b60006121a2602183611aed565b91506121ad82612146565b604082019050919050565b600060208201905081810360008301526121d181612195565b9050919050565b7f4552433732313a20617070726f76652063616c6c6572206973206e6f7420746f60008201527f6b656e206f776e6572206e6f7220617070726f76656420666f7220616c6c0000602082015250565b6000612234603e83611aed565b915061223f826121d8565b604082019050919050565b6000602082019050818103600083015261226381612227565b9050919050565b7f4552433732313a2063616c6c6572206973206e6f7420746f6b656e206f776e6560008201527f72206e6f7220617070726f766564000000000000000000000000000000000000602082015250565b60006122c6602e83611aed565b91506122d18261226a565b604082019050919050565b600060208201905081810360008301526122f5816122b9565b9050919050565b7f4552433732313a20696e76616c696420746f6b656e2049440000000000000000600082015250565b6000612332601883611aed565b915061233d826122fc565b602082019050919050565b6000602082019050818103600083015261236181612325565b9050919050565b7f4552433732313a2061646472657373207a65726f206973206e6f74206120766160008201527f6c6964206f776e65720000000000000000000000000000000000000000000000602082015250565b60006123c4602983611aed565b91506123cf82612368565b604082019050919050565b600060208201905081810360008301526123f3816123b7565b9050919050565b7f4e487b7100000000000000000000000000000000000000000000000000000000600052603260045260246000fd5b600081905092915050565b7f7b226e616d65223a202200000000000000000000000000000000000000000000600082015250565b600061246a600a83612429565b915061247582612434565b600a82019050919050565b60008190508160005260206000209050919050565b600081546124a281612115565b6124ac8186612429565b945060018216600081146124c757600181146124dc5761250f565b60ff198316865281151582028601935061250f565b6124e585612480565b60005b83811015612507578154818901526001820191506020810190506124e8565b838801955050505b50505092915050565b7f202d2d204e465420233a20000000000000000000000000000000000000000000600082015250565b600061254e600b83612429565b915061255982612518565b600b82019050919050565b600061256f82611ae2565b6125798185612429565b9350612589818560208601611afe565b80840191505092915050565b7f222c20226465736372697074696f6e223a2022416e2065706963204e4654222c60008201527f2022696d616765223a2022697066733a2f2f0000000000000000000000000000602082015250565b60006125f1603283612429565b91506125fc82612595565b603282019050919050565b7f227d000000000000000000000000000000000000000000000000000000000000600082015250565b600061263d600283612429565b915061264882612607565b600282019050919050565b600061265e8261245d565b915061266a8286612495565b915061267582612541565b91506126818285612564565b915061268c826125e4565b91506126988284612495565b91506126a382612630565b9150819050949350505050565b7f646174613a6170706c69636174696f6e2f6a736f6e3b6261736536342c000000600082015250565b60006126e6601d83612429565b91506126f1826126b0565b601d82019050919050565b6000612707826126d9565b91506127138284612564565b915081905092915050565b60006020601f8301049050919050565b600082821b905092915050565b60006008830261276b7fffffffffffffffffffffffffffffffffffffffffffffffffffffffffffffffff8261272e565b612775868361272e565b95508019841693508086168417925050509392505050565b6000819050919050565b60006127b26127ad6127a884611b94565b61278d565b611b94565b9050919050565b6000819050919050565b6127cc83612797565b6127e06127d8826127b9565b84845461273b565b825550505050565b600090565b6127f56127e8565b6128008184846127c3565b505050565b5b81811015612824576128196000826127ed565b600181019050612806565b5050565b601f8211156128695761283a81612480565b6128438461271e565b81016020851015612852578190505b61286661285e8561271e565b830182612805565b50505b505050565b600082821c905092915050565b600061288c6000198460080261286e565b1980831691505092915050565b60006128a5838361287b565b9150826002028217905092915050565b6128be82611ae2565b67ffffffffffffffff8111156128d7576128d6611ddf565b5b6128e18254612115565b6128ec828285612828565b600060209050601f83116001811461291f576000841561290d578287015190505b6129178582612899565b86555061297f565b601f19841661292d86612480565b60005b8281101561295557848901518255600182019150602085019450602081019050612930565b86831015612972578489015161296e601f89168261287b565b8355505b6001600288020188555050505b505050505050565b7f4552433732313a207472616e736665722066726f6d20696e636f72726563742060008201527f6f776e6572000000000000000000000000000000000000000000000000000000602082015250565b60006129e3602583611aed565b91506129ee82612987565b604082019050919050565b60006020820190508181036000830152612a12816129d6565b9050919050565b7f4552433732313a207472616e7366657220746f20746865207a65726f2061646460008201527f7265737300000000000000000000000000000000000000000000000000000000602082015250565b6000612a75602483611aed565b9150612a8082612a19565b604082019050919050565b60006020820190508181036000830152612aa481612a68565b9050919050565b7f4e487b7100000000000000000000000000000000000000000000000000000000600052601160045260246000fd5b6000612ae582611b94565b9150612af083611b94565b9250828203905081811115612b0857612b07612aab565b5b92915050565b6000612b1982611b94565b9150612b2483611b94565b9250828201905080821115612b3c57612b3b612aab565b5b92915050565b7f4552433732313a20617070726f766520746f2063616c6c657200000000000000600082015250565b6000612b78601983611aed565b9150612b8382612b42565b602082019050919050565b60006020820190508181036000830152612ba781612b6b565b9050919050565b7f4552433732313a207472616e7366657220746f206e6f6e20455243373231526560008201527f63656976657220696d706c656d656e7465720000000000000000000000000000602082015250565b6000612c0a603283611aed565b9150612c1582612bae565b604082019050919050565b60006020820190508181036000830152612c3981612bfd565b9050919050565b6000612c4b82611b94565b91507fffffffffffffffffffffffffffffffffffffffffffffffffffffffffffffffff8203612c7d57612c7c612aab565b5b600182019050919050565b7f4e487b7100000000000000000000000000000000000000000000000000000000600052601260045260246000fd5b6000612cc282611b94565b9150612ccd83611b94565b925082612cdd57612cdc612c88565b5b828204905092915050565b6000612cf382611b94565b9150612cfe83611b94565b925082612d0e57612d0d612c88565b5b828206905092915050565b6000612d2482611b94565b9150612d2f83611b94565b9250828202612d3d81611b94565b91508282048414831517612d5457612d53612aab565b5b5092915050565b60006060820190508181036000830152612d758186611b39565b9050612d846020830185611d12565b612d916040830184611c29565b949350505050565b600081519050919050565b600082825260208201905092915050565b6000612dc082612d99565b612dca8185612da4565b9350612dda818560208601611afe565b612de381611b28565b840191505092915050565b6000608082019050612e036000830187611c29565b612e106020830186611c29565b612e1d6040830185611d12565b8181036060830152612e2f8184612db5565b905095945050505050565b600081519050612e4981611a53565b92915050565b600060208284031215612e6557612e64611a1d565b5b6000612e7384828501612e3a565b91505092915050565b7f4552433732313a206d696e7420746f20746865207a65726f2061646472657373600082015250565b6000612eb2602083611aed565b9150612ebd82612e7c565b602082019050919050565b60006020820190508181036000830152612ee181612ea5565b9050919050565b7f4552433732313a20746f6b656e20616c7265616479206d696e74656400000000600082015250565b6000612f1e601c83611aed565b9150612f2982612ee8565b602082019050919050565b60006020820190508181036000830152612f4d81612f11565b905091905056fe416e204e465420772f20494420257320686173206265656e206d696e74656420746f2025734142434445464748494a4b4c4d4e4f505152535455565758595a6162636465666768696a6b6c6d6e6f707172737475767778797a303132333435363738392b2fa26469706673582212205a70a11fda299cf55c172218ed4e008874311c04c24d4f1f2636e1a24460a5f964736f6c63430008110033",
  "linkReferences": {},
  "deployedLinkReferences": {}
}